:100000000C9446000C945D000C945D000C945D0013
:100010000C945D000C945D000C945D000C945D00EC
:100020000C945D000C945D000C945D000C945D00DC
:100030000C945D000C945D000C945D000C945D00CC
:100040000C945D000C945D000C945D000C945D00BC
:100050000C945D000C945D000C945D000C945D00AC
:100060000C945D000C945D000C945D000C945D009C
:100070000C945D000C945D000C945D000C945D008C
:100080000C945D000C945D000C945D0011241FBE67
:10009000CFEFD0E4DEBFCDBF11E0A0E0B1E0E4E2FD
:1000A000F2E000E00BBF02C007900D92AE30B10746
:1000B000D9F70E9488000C9410010C940000CF9393
:1000C000DF9300D01F92CDB7DEB789837B836A832D
:1000D00089818A3031F48A819B81BC018DE00E9444
:1000E0005F0080EC90E0FC018081882F90E08072BE
:1000F0009927892BB1F386EC90E02981FC012083BC
:1001000080E090E00F900F900F90DF91CF910895D5
:10011000CF93DF9300D000D000D0CDB7DEB781E21F
:1001200090E0FC01108282E290E02FEFFC0120833E
:1001300084E290E0FC01108285E290E02FEFFC0168
:10014000208387E290E0FC01108288E290E02FEFAC
:10015000FC0120838AE290E02FEFFC0120838BE2F8
:1001600090E0FC0110821B821A821C821D821E827A
:10017000198280E290E0FC0180818C8383E290E030
:10018000FC0180818D8386E290E0FC0180818E837A
:100190008C81282F30E08D81882F90E0280F391F27
:1001A0008E81882F90E0820F931F9B838A838A81A0
:1001B0009B818D38910518F081E0898301C01982F7
:1001C0008C81282F30E08E81882F90E0A901481B78
:1001D000590BCA01813591056CF48E81282F30E0CE
:1001E0008C81882F90E0F901E81BF90BCF01813554
:1001F00091051CF08981826089838A819B81969513
:100200008795969587959B838A838A818C7F998130
:10021000892B89838BE290E02981FC012083A9CF7F
:04022000F894FFCF80
:0E02240000000002000000005F00000000006B
:00000001FF
